{
  "contractName": "DiamondTraceability",
  "abi": [
    {
      "anonymous": false,
      "inputs": [
        {
          "indexed": true,
          "internalType": "string",
          "name": "diamondId",
          "type": "string"
        },
        {
          "indexed": false,
          "internalType": "uint256",
          "name": "price",
          "type": "uint256"
        }
      ],
      "name": "DiamondForSale",
      "type": "event"
    },
    {
      "anonymous": false,
      "inputs": [
        {
          "indexed": true,
          "internalType": "string",
          "name": "diamondId",
          "type": "string"
        },
        {
          "indexed": true,
          "internalType": "address",
          "name": "oldOwner",
          "type": "address"
        },
        {
          "indexed": true,
          "internalType": "address",
          "name": "newOwner",
          "type": "address"
        },
        {
          "indexed": false,
          "internalType": "uint256",
          "name": "price",
          "type": "uint256"
        }
      ],
      "name": "DiamondSold",
      "type": "event"
    },
    {
      "anonymous": false,
      "inputs": [
        {
          "indexed": true,
          "internalType": "string",
          "name": "diamondId",
          "type": "string"
        },
        {
          "indexed": true,
          "internalType": "address",
          "name": "oldOwner",
          "type": "address"
        },
        {
          "indexed": true,
          "internalType": "address",
          "name": "newOwner",
          "type": "address"
        }
      ],
      "name": "OwnershipTransferred",
      "type": "event"
    },
    {
      "inputs": [
        {
          "internalType": "string",
          "name": "",
          "type": "string"
        }
      ],
      "name": "diamondExists",
      "outputs": [
        {
          "internalType": "bool",
          "name": "",
          "type": "bool"
        }
      ],
      "stateMutability": "view",
      "type": "function"
    },
    {
      "inputs": [
        {
          "internalType": "string",
          "name": "",
          "type": "string"
        }
      ],
      "name": "diamonds",
      "outputs": [
        {
          "internalType": "string",
          "name": "id",
          "type": "string"
        },
        {
          "internalType": "string",
          "name": "origin",
          "type": "string"
        },
        {
          "internalType": "address",
          "name": "currentOwner",
          "type": "address"
        },
        {
          "internalType": "uint256",
          "name": "price",
          "type": "uint256"
        },
        {
          "internalType": "bool",
          "name": "forSale",
          "type": "bool"
        }
      ],
      "stateMutability": "view",
      "type": "function"
    },
    {
      "inputs": [
        {
          "internalType": "string",
          "name": "_id",
          "type": "string"
        },
        {
          "internalType": "string",
          "name": "_origin",
          "type": "string"
        },
        {
          "internalType": "uint256",
          "name": "_initialPrice",
          "type": "uint256"
        }
      ],
      "name": "addDiamond",
      "outputs": [],
      "stateMutability": "nonpayable",
      "type": "function"
    },
    {
      "inputs": [
        {
          "internalType": "string",
          "name": "_id",
          "type": "string"
        },
        {
          "internalType": "address",
          "name": "_newOwner",
          "type": "address"
        }
      ],
      "name": "transferOwnership",
      "outputs": [],
      "stateMutability": "nonpayable",
      "type": "function"
    },
    {
      "inputs": [
        {
          "internalType": "string",
          "name": "_id",
          "type": "string"
        }
      ],
      "name": "getTransferHistory",
      "outputs": [
        {
          "internalType": "string[]",
          "name": "",
          "type": "string[]"
        }
      ],
      "stateMutability": "view",
      "type": "function"
    },
    {
      "inputs": [
        {
          "internalType": "string",
          "name": "_id",
          "type": "string"
        },
        {
          "internalType": "uint256",
          "name": "_price",
          "type": "uint256"
        }
      ],
      "name": "setForSale",
      "outputs": [],
      "stateMutability": "nonpayable",
      "type": "function"
    },
    {
      "inputs": [
        {
          "internalType": "string",
          "name": "_id",
          "type": "string"
        }
      ],
      "name": "buyDiamond",
      "outputs": [],
      "stateMutability": "payable",
      "type": "function"
    },
    {
      "inputs": [
        {
          "internalType": "string",
          "name": "_id",
          "type": "string"
        }
      ],
      "name": "cancelSale",
      "outputs": [],
      "stateMutability": "nonpayable",
      "type": "function"
    },
    {
      "inputs": [
        {
          "internalType": "address",
          "name": "_user",
          "type": "address"
        }
      ],
      "name": "getUserDiamonds",
      "outputs": [
        {
          "internalType": "string[]",
          "name": "",
          "type": "string[]"
        }
      ],
      "stateMutability": "view",
      "type": "function"
    }
  ],
  "bytecode": "0x608060405234801561001057600080fd5b50612eb0806100206000396000f3fe6080604052600436106100865760003560e01c806379885fa21161005957806379885fa2146101365780637b2cca7c14610173578063c0e793c2146101b0578063eb4849cf146101d9578063f25abcba1461021a57610086565b80631e31b9a51461008b5780632977f78a146100a75780635801dac9146100d05780636b4a17f01461010d575b600080fd5b6100a560048036038101906100a09190611d50565b610243565b005b3480156100b357600080fd5b506100ce60048036038101906100c99190611d50565b610866565b005b3480156100dc57600080fd5b506100f760048036038101906100f29190611d50565b610a2a565b6040516101049190611db4565b60405180910390f35b34801561011957600080fd5b50610134600480360381019061012f9190611e05565b610a60565b005b34801561014257600080fd5b5061015d60048036038101906101589190611ebf565b610c2b565b60405161016a919061202d565b60405180910390f35b34801561017f57600080fd5b5061019a60048036038101906101959190611d50565b610d43565b6040516101a7919061202d565b60405180910390f35b3480156101bc57600080fd5b506101d760048036038101906101d2919061204f565b610f17565b005b3480156101e557600080fd5b5061020060048036038101906101fb9190611d50565b6112c3565b604051610211959493929190612113565b60405180910390f35b34801561022657600080fd5b50610241600480360381019061023c9190612174565b61144c565b005b600181604051610253919061223b565b908152602001604051809103902060009054906101000a900460ff166102ae576040517f08c379a00000000000000000000000000000000000000000000000000000000081526004016102a59061229e565b60405180910390fd5b6000816040516102be919061223b565b908152602001604051809103902060050160009054906101000a900460ff1661031c576040517f08c379a00000000000000000000000000000000000000000000000000000000081526004016103139061230a565b60405180910390fd5b60008160405161032c919061223b565b908152602001604051809103902060040154341015610380576040517f08c379a000000000000000000000000000000000000000000000000000000000815260040161037790612376565b60405180910390fd5b600081604051610390919061223b565b908152602001604051809103902060020160009054906101000a900473ffffffffffffffffffffffffffffffffffffffff1673ffffffffffffffffffffffffffffffffffffffff163373ffffffffffffffffffffffffffffffffffffffff160361042f576040517f08c379a000000000000000000000000000000000000000000000000000000000815260040161042690612408565b60405180910390fd5b60008082604051610440919061223b565b908152602001604051809103902060020160009054906101000a900473ffffffffffffffffffffffffffffffffffffffff16905060008083604051610485919061223b565b90815260200160405180910390206004015490506000836040516104a9919061223b565b90815260200160405180910390206003016000846040516104ca919061223b565b908152602001604051809103902060020160009054906101000a900473ffffffffffffffffffffffffffffffffffffffff169080600181540180825580915050600190039060005260206000200160009091909190916101000a81548173ffffffffffffffffffffffffffffffffffffffff021916908373ffffffffffffffffffffffffffffffffffffffff1602179055503360008460405161056d919061223b565b908152602001604051809103902060020160006101000a81548173ffffffffffffffffffffffffffffffffffffffff021916908373ffffffffffffffffffffffffffffffffffffffff160217905550600080846040516105cd919061223b565b908152602001604051809103902060050160006101000a81548160ff0219169083151502179055506105ff82846116cf565b600260003373ffffffffffffffffffffffffffffffffffffffff1673ffffffffffffffffffffffffffffffffffffffff168152602001908152602001600020839080600181540180825580915050600190039060005260206000200160009091909190915090816106709190612634565b5060008273ffffffffffffffffffffffffffffffffffffffff168260405161069790612737565b60006040518083038185875af1925050503d80600081146106d4576040519150601f19603f3d011682016040523d82523d6000602084013e6106d9565b606091505b505090508061071d576040517f08c379a000000000000000000000000000000000000000000000000000000000815260040161071490612798565b60405180910390fd5b6000823461072b91906127e7565b905060008111156107e45760003373ffffffffffffffffffffffffffffffffffffffff168260405161075c90612737565b60006040518083038185875af1925050503d8060008114610799576040519150601f19603f3d011682016040523d82523d6000602084013e61079e565b606091505b50509050806107e2576040517f08c379a00000000000000000000000000000000000000000000000000000000081526004016107d990612867565b60405180910390fd5b505b3373ffffffffffffffffffffffffffffffffffffffff168473ffffffffffffffffffffffffffffffffffffffff1686604051610820919061223b565b60405180910390207f9d3909c424316452b4b0ae0b3694f4c8db24789ce955d65f096f09d05e3e49ee866040516108579190612887565b60405180910390a45050505050565b600181604051610876919061223b565b908152602001604051809103902060009054906101000a900460ff166108d1576040517f08c379a00000000000000000000000000000000000000000000000000000000081526004016108c8906128ee565b60405180910390fd5b6000816040516108e1919061223b565b908152602001604051809103902060020160009054906101000a900473ffffffffffffffffffffffffffffffffffffffff1673ffffffffffffffffffffffffffffffffffffffff163373ffffffffffffffffffffffffffffffffffffffff1614610980576040517f08c379a000000000000000000000000000000000000000000000000000000000815260040161097790612980565b60405180910390fd5b600081604051610990919061223b565b908152602001604051809103902060050160009054906101000a900460ff166109ee576040517f08c379a00000000000000000000000000000000000000000000000000000000081526004016109e5906129ec565b60405180910390fd5b600080826040516109ff919061223b565b908152602001604051809103902060050160006101000a81548160ff02191690831515021790555050565b6001818051602081018201805184825260208301602085012081835280955050505050506000915054906101000a900460ff1681565b600182604051610a70919061223b565b908152602001604051809103902060009054906101000a900460ff16610acb576040517f08c379a0000000000000000000000000000000000000000000000000000000008152600401610ac2906128ee565b60405180910390fd5b600082604051610adb919061223b565b908152602001604051809103902060020160009054906101000a900473ffffffffffffffffffffffffffffffffffffffff1673ffffffffffffffffffffffffffffffffffffffff163373ffffffffffffffffffffffffffffffffffffffff1614610b7a576040517f08c379a0000000000000000000000000000000000000000000000000000000008152600401610b7190612a7e565b60405180910390fd5b80600083604051610b8b919061223b565b9081526020016040518091039020600401819055506001600083604051610bb2919061223b565b908152602001604051809103902060050160006101000a81548160ff02191690831515021790555081604051610be8919061223b565b60405180910390207f4692d9e2fb5c5452296106286f77ca8eb0d9857fc16bec01a11b328582b17f6d82604051610c1f9190612887565b60405180910390a25050565b6060600260008373ffffffffffffffffffffffffffffffffffffffff1673ffffffffffffffffffffffffffffffffffffffff168152602001908152602001600020805480602002602001604051908101604052809291908181526020016000905b82821015610d38578382906000526020600020018054610cab90612457565b80601f0160208091040260200160405190810160405280929190818152602001828054610cd790612457565b8015610d245780601f10610cf957610100808354040283529160200191610d24565b820191906000526020600020905b815481529060010190602001808311610d0757829003601f168201915b505050505081526020019060010190610c8c565b505050509050919050565b6060600182604051610d55919061223b565b908152602001604051809103902060009054906101000a900460ff16610db0576040517f08c379a0000000000000000000000000000000000000000000000000000000008152600401610da7906128ee565b60405180910390fd5b60008083604051610dc1919061223b565b9081526020016040518091039020600301805480602002602001604051908101604052809291908181526020018280548015610e5257602002820191906000526020600020905b8160009054906101000a900473ffffffffffffffffffffffffffffffffffffffff1673ffffffffffffffffffffffffffffffffffffffff1681526020019060010190808311610e08575b505050505090506000815167ffffffffffffffff811115610e7657610e75611c25565b5b604051908082528060200260200182016040528015610ea957816020015b6060815260200190600190039081610e945790505b50905060005b8251811015610f0c57610edb838281518110610ece57610ecd612a9e565b5b6020026020010151611804565b828281518110610eee57610eed612a9e565b5b60200260200101819052508080610f0490612acd565b915050610eaf565b508092505050919050565b600182604051610f27919061223b565b908152602001604051809103902060009054906101000a900460ff16610f82576040517f08c379a0000000000000000000000000000000000000000000000000000000008152600401610f79906128ee565b60405180910390fd5b600082604051610f92919061223b565b908152602001604051809103902060020160009054906101000a900473ffffffffffffffffffffffffffffffffffffffff1673ffffffffffffffffffffffffffffffffffffffff163373ffffffffffffffffffffffffffffffffffffffff1614611031576040517f08c379a000000000000000000000000000000000000000000000000000000000815260040161102890612b87565b60405180910390fd5b600082604051611041919061223b565b9081526020016040518091039020600301600083604051611062919061223b565b908152602001604051809103902060020160009054906101000a900473ffffffffffffffffffffffffffffffffffffffff169080600181540180825580915050600190039060005260206000200160009091909190916101000a81548173ffffffffffffffffffffffffffffffffffffffff021916908373ffffffffffffffffffffffffffffffffffffffff16021790555060008083604051611105919061223b565b908152602001604051809103902060020160009054906101000a900473ffffffffffffffffffffffffffffffffffffffff1690508160008460405161114a919061223b565b908152602001604051809103902060020160006101000a81548173ffffffffffffffffffffffffffffffffffffffff021916908373ffffffffffffffffffffffffffffffffffffffff160217905550600080846040516111aa919061223b565b908152602001604051809103902060050160006101000a81548160ff0219169083151502179055506111dc81846116cf565b600260008373ffffffffffffffffffffffffffffffffffffffff1673ffffffffffffffffffffffffffffffffffffffff1681526020019081526020016000208390806001815401808255809150506001900390600052602060002001600090919091909150908161124d9190612634565b508173ffffffffffffffffffffffffffffffffffffffff168173ffffffffffffffffffffffffffffffffffffffff168460405161128a919061223b565b60405180910390207f6840904f5b31827f74e1497360da245f56e530c8c3de3163a2d31f11493273c660405160405180910390a4505050565b6000818051602081018201805184825260208301602085012081835280955050505050506000915090508060000180546112fc90612457565b80601f016020809104026020016040519081016040528092919081815260200182805461132890612457565b80156113755780601f1061134a57610100808354040283529160200191611375565b820191906000526020600020905b81548152906001019060200180831161135857829003601f168201915b50505050509080600101805461138a90612457565b80601f01602080910402602001604051908101604052809291908181526020018280546113b690612457565b80156114035780601f106113d857610100808354040283529160200191611403565b820191906000526020600020905b8154815290600101906020018083116113e657829003601f168201915b5050505050908060020160009054906101000a900473ffffffffffffffffffffffffffffffffffffffff16908060040154908060050160009054906101000a900460ff16905085565b60018360405161145c919061223b565b908152602001604051809103902060009054906101000a900460ff16156114b8576040517f08c379a00000000000000000000000000000000000000000000000000000000081526004016114af90612bf3565b60405180910390fd5b6040518060c001604052808481526020018381526020013373ffffffffffffffffffffffffffffffffffffffff168152602001600067ffffffffffffffff81111561150657611505611c25565b5b6040519080825280602002602001820160405280156115345781602001602082028036833780820191505090505b50815260200182815260200160001515815250600084604051611557919061223b565b9081526020016040518091039020600082015181600001908161157a9190612634565b5060208201518160010190816115909190612634565b5060408201518160020160006101000a81548173ffffffffffffffffffffffffffffffffffffffff021916908373ffffffffffffffffffffffffffffffffffffffff16021790555060608201518160030190805190602001906115f4929190611b0f565b506080820151816004015560a08201518160050160006101000a81548160ff02191690831515021790555090505060018084604051611633919061223b565b908152602001604051809103902060006101000a81548160ff021916908315150217905550600260003373ffffffffffffffffffffffffffffffffffffffff1673ffffffffffffffffffffffffffffffffffffffff168152602001908152602001600020839080600181540180825580915050600190039060005260206000200160009091909190915090816116c99190612634565b50505050565b6000600260008473ffffffffffffffffffffffffffffffffffffffff1673ffffffffffffffffffffffffffffffffffffffff168152602001908152602001600020905060005b81805490508110156117fe57828051906020012082828154811061173c5761173b612a9e565b5b906000526020600020016040516117539190612cab565b6040518091039020036117eb57816001838054905061177291906127e7565b8154811061178357611782612a9e565b5b906000526020600020018282815481106117a05761179f612a9e565b5b9060005260206000200190816117b69190612ced565b50818054806117c8576117c7612dd5565b5b6001900381819060005260206000200160006117e49190611b99565b90556117fe565b80806117f690612acd565b915050611715565b50505050565b606060008273ffffffffffffffffffffffffffffffffffffffff1660001b905060006040518060400160405280601081526020017f303132333435363738396162636465660000000000000000000000000000000081525090506000602a67ffffffffffffffff81111561187b5761187a611c25565b5b6040519080825280601f01601f1916602001820160405280156118ad5781602001600182028036833780820191505090505b5090507f3000000000000000000000000000000000000000000000000000000000000000816000815181106118e5576118e4612a9e565b5b60200101907effffffffffffffffffffffffffffffffffffffffffffffffffffffffffffff1916908160001a9053507f78000000000000000000000000000000000000000000000000000000000000008160018151811061194957611948612a9e565b5b60200101907effffffffffffffffffffffffffffffffffffffffffffffffffffffffffffff1916908160001a90535060005b6014811015611b035782600485600c846119959190612e04565b602081106119a6576119a5612a9e565b5b1a60f81b7effffffffffffffffffffffffffffffffffffffffffffffffffffffffffffff1916901c60f81c60ff16815181106119e5576119e4612a9e565b5b602001015160f81c60f81b826002836119fe9190612e38565b6002611a0a9190612e04565b81518110611a1b57611a1a612a9e565b5b60200101907effffffffffffffffffffffffffffffffffffffffffffffffffffffffffffff1916908160001a90535082600f60f81b85600c84611a5e9190612e04565b60208110611a6f57611a6e612a9e565b5b1a60f81b1660f81c60ff1681518110611a8b57611a8a612a9e565b5b602001015160f81c60f81b82600283611aa49190612e38565b6003611ab09190612e04565b81518110611ac157611ac0612a9e565b5b60200101907effffffffffffffffffffffffffffffffffffffffffffffffffffffffffffff1916908160001a9053508080611afb90612acd565b91505061197b565b50809350505050919050565b828054828255906000526020600020908101928215611b88579160200282015b82811115611b875782518260006101000a81548173ffffffffffffffffffffffffffffffffffffffff021916908373ffffffffffffffffffffffffffffffffffffffff16021790555091602001919060010190611b2f565b5b509050611b959190611bd9565b5090565b508054611ba590612457565b6000825580601f10611bb75750611bd6565b601f016020900490600052602060002090810190611bd59190611bd9565b5b50565b5b80821115611bf2576000816000905550600101611bda565b5090565b6000604051905090565b600080fd5b600080fd5b600080fd5b600080fd5b6000601f19601f8301169050919050565b7f4e487b7100000000000000000000000000000000000000000000000000000000600052604160045260246000fd5b611c5d82611c14565b810181811067ffffffffffffffff82111715611c7c57611c7b611c25565b5b80604052505050565b6000611c8f611bf6565b9050611c9b8282611c54565b919050565b600067ffffffffffffffff821115611cbb57611cba611c25565b5b611cc482611c14565b9050602081019050919050565b82818337600083830152505050565b6000611cf3611cee84611ca0565b611c85565b905082815260208101848484011115611d0f57611d0e611c0f565b5b611d1a848285611cd1565b509392505050565b600082601f830112611d3757611d36611c0a565b5b8135611d47848260208601611ce0565b91505092915050565b600060208284031215611d6657611d65611c00565b5b600082013567ffffffffffffffff811115611d8457611d83611c05565b5b611d9084828501611d22565b91505092915050565b60008115159050919050565b611dae81611d99565b82525050565b6000602082019050611dc96000830184611da5565b92915050565b6000819050919050565b611de281611dcf565b8114611ded57600080fd5b50565b600081359050611dff81611dd9565b92915050565b60008060408385031215611e1c57611e1b611c00565b5b600083013567ffffffffffffffff811115611e3a57611e39611c05565b5b611e4685828601611d22565b9250506020611e5785828601611df0565b9150509250929050565b600073ffffffffffffffffffffffffffffffffffffffff82169050919050565b6000611e8c82611e61565b9050919050565b611e9c81611e81565b8114611ea757600080fd5b50565b600081359050611eb981611e93565b92915050565b600060208284031215611ed557611ed4611c00565b5b6000611ee384828501611eaa565b91505092915050565b600081519050919050565b600082825260208201905092915050565b6000819050602082019050919050565b600081519050919050565b600082825260208201905092915050565b60005b83811015611f52578082015181840152602081019050611f37565b60008484015250505050565b6000611f6982611f18565b611f738185611f23565b9350611f83818560208601611f34565b611f8c81611c14565b840191505092915050565b6000611fa38383611f5e565b905092915050565b6000602082019050919050565b6000611fc382611eec565b611fcd8185611ef7565b935083602082028501611fdf85611f08565b8060005b8581101561201b5784840389528151611ffc8582611f97565b945061200783611fab565b925060208a01995050600181019050611fe3565b50829750879550505050505092915050565b600060208201905081810360008301526120478184611fb8565b905092915050565b6000806040838503121561206657612065611c00565b5b600083013567ffffffffffffffff81111561208457612083611c05565b5b61209085828601611d22565b92505060206120a185828601611eaa565b9150509250929050565b600082825260208201905092915050565b60006120c782611f18565b6120d181856120ab565b93506120e1818560208601611f34565b6120ea81611c14565b840191505092915050565b6120fe81611e81565b82525050565b61210d81611dcf565b82525050565b600060a082019050818103600083015261212d81886120bc565b9050818103602083015261214181876120bc565b905061215060408301866120f5565b61215d6060830185612104565b61216a6080830184611da5565b9695505050505050565b60008060006060848603121561218d5761218c611c00565b5b600084013567ffffffffffffffff8111156121ab576121aa611c05565b5b6121b786828701611d22565b935050602084013567ffffffffffffffff8111156121d8576121d7611c05565b5b6121e486828701611d22565b92505060406121f586828701611df0565b9150509250925092565b600081905092915050565b600061221582611f18565b61221f81856121ff565b935061222f818560208601611f34565b80840191505092915050565b6000612247828461220a565b915081905092915050565b7f4572726f7220313a204469616d6f6e6420646f6573206e6f7420657869737400600082015250565b6000612288601f836120ab565b915061229382612252565b602082019050919050565b600060208201905081810360008301526122b78161227b565b9050919050565b7f4572726f7220323a204469616d6f6e64206973206e6f7420666f722073616c65600082015250565b60006122f46020836120ab565b91506122ff826122be565b602082019050919050565b60006020820190508181036000830152612323816122e7565b9050919050565b7f4572726f7220333a20496e73756666696369656e74207061796d656e74000000600082015250565b6000612360601d836120ab565b915061236b8261232a565b602082019050919050565b6000602082019050818103600083015261238f81612353565b9050919050565b7f4572726f7220343a204f776e65722063616e6e6f74206275792074686569722060008201527f6f776e206469616d6f6e64000000000000000000000000000000000000000000602082015250565b60006123f2602b836120ab565b91506123fd82612396565b604082019050919050565b60006020820190508181036000830152612421816123e5565b9050919050565b7f4e487b7100000000000000000000000000000000000000000000000000000000600052602260045260246000fd5b6000600282049050600182168061246f57607f821691505b60208210810361248257612481612428565b5b50919050565b60008190508160005260206000209050919050565b60006020601f8301049050919050565b600082821b905092915050565b6000600883026124ea7fffffffffffffffffffffffffffffffffffffffffffffffffffffffffffffffff826124ad565b6124f486836124ad565b95508019841693508086168417925050509392505050565b6000819050919050565b600061253161252c61252784611dcf565b61250c565b611dcf565b9050919050565b6000819050919050565b61254b83612516565b61255f61255782612538565b8484546124ba565b825550505050565b600090565b612574612567565b61257f818484612542565b505050565b5b818110156125a35761259860008261256c565b600181019050612585565b5050565b601f8211156125e8576125b981612488565b6125c28461249d565b810160208510156125d1578190505b6125e56125dd8561249d565b830182612584565b50505b505050565b600082821c905092915050565b600061260b600019846008026125ed565b1980831691505092915050565b600061262483836125fa565b9150826002028217905092915050565b61263d82611f18565b67ffffffffffffffff81111561265657612655611c25565b5b6126608254612457565b61266b8282856125a7565b600060209050601f83116001811461269e576000841561268c578287015190505b6126968582612618565b8655506126fe565b601f1984166126ac86612488565b60005b828110156126d4578489015182556001820191506020850194506020810190506126af565b868310156126f157848901516126ed601f8916826125fa565b8355505b6001600288020188555050505b505050505050565b600081905092915050565b50565b6000612721600083612706565b915061272c82612711565b600082019050919050565b600061274282612714565b9150819050919050565b7f4572726f7220353a204661696c656420746f2073656e64204574686572000000600082015250565b6000612782601d836120ab565b915061278d8261274c565b602082019050919050565b600060208201905081810360008301526127b181612775565b9050919050565b7f4e487b7100000000000000000000000000000000000000000000000000000000600052601160045260246000fd5b60006127f282611dcf565b91506127fd83611dcf565b9250828203905081811115612815576128146127b8565b5b92915050565b7f4572726f7220363a204661696c656420746f20726566756e6420657863657373600082015250565b60006128516020836120ab565b915061285c8261281b565b602082019050919050565b6000602082019050818103600083015261288081612844565b9050919050565b600060208201905061289c6000830184612104565b92915050565b7f4469616d6f6e6420646f6573206e6f7420657869737400000000000000000000600082015250565b60006128d86016836120ab565b91506128e3826128a2565b602082019050919050565b60006020820190508181036000830152612907816128cb565b9050919050565b7f4f6e6c79207468652063757272656e74206f776e65722063616e2063616e636560008201527f6c207468652073616c6500000000000000000000000000000000000000000000602082015250565b600061296a602a836120ab565b91506129758261290e565b604082019050919050565b600060208201905081810360008301526129998161295d565b9050919050565b7f4469616d6f6e64206973206e6f7420666f722073616c65000000000000000000600082015250565b60006129d66017836120ab565b91506129e1826129a0565b602082019050919050565b60006020820190508181036000830152612a05816129c9565b9050919050565b7f4f6e6c79207468652063757272656e74206f776e65722063616e20736574207460008201527f6865206469616d6f6e6420666f722073616c6500000000000000000000000000602082015250565b6000612a686033836120ab565b9150612a7382612a0c565b604082019050919050565b60006020820190508181036000830152612a9781612a5b565b9050919050565b7f4e487b7100000000000000000000000000000000000000000000000000000000600052603260045260246000fd5b6000612ad882611dcf565b91507fffffffffffffffffffffffffffffffffffffffffffffffffffffffffffffffff8203612b0a57612b096127b8565b5b600182019050919050565b7f4f6e6c79207468652063757272656e74206f776e65722063616e207472616e7360008201527f666572206f776e65727368697000000000000000000000000000000000000000602082015250565b6000612b71602d836120ab565b9150612b7c82612b15565b604082019050919050565b60006020820190508181036000830152612ba081612b64565b9050919050565b7f4469616d6f6e6420616c72656164792065786973747300000000000000000000600082015250565b6000612bdd6016836120ab565b9150612be882612ba7565b602082019050919050565b60006020820190508181036000830152612c0c81612bd0565b9050919050565b60008190508160005260206000209050919050565b60008154612c3581612457565b612c3f8186612706565b94506001821660008114612c5a5760018114612c6f57612ca2565b60ff1983168652811515820286019350612ca2565b612c7885612c13565b60005b83811015612c9a57815481890152600182019150602081019050612c7b565b838801955050505b50505092915050565b6000612cb78284612c28565b915081905092915050565b600081549050612cd181612457565b9050919050565b60008190508160005260206000209050919050565b818103612cfb575050612dd3565b612d0482612cc2565b67ffffffffffffffff811115612d1d57612d1c611c25565b5b612d278254612457565b612d328282856125a7565b6000601f831160018114612d615760008415612d4f578287015490505b612d598582612618565b865550612dcc565b601f198416612d6f87612cd8565b9650612d7a86612488565b60005b82811015612da257848901548255600182019150600185019450602081019050612d7d565b86831015612dbf5784890154612dbb601f8916826125fa565b8355505b6001600288020188555050505b5050505050505b565b7f4e487b7100000000000000000000000000000000000000000000000000000000600052603160045260246000fd5b6000612e0f82611dcf565b9150612e1a83611dcf565b9250828201905080821115612e3257612e316127b8565b5b92915050565b6000612e4382611dcf565b9150612e4e83611dcf565b9250828202612e5c81611dcf565b91508282048414831517612e7357612e726127b8565b5b509291505056fea2646970667358221220b50b85d58402c5f000625443c544c441e9c36eb75eef860dc139b3809651cdbd64736f6c63430008130033",
  "immutableReferences": {},
  "source": "// SPDX-License-Identifier: MIT\r\npragma solidity ^0.8.19;\r\n\r\ncontract DiamondTraceability {\r\n    \r\n    struct Diamond {\r\n        string id;\r\n        string origin;\r\n        address currentOwner;\r\n        address[] transferHistory;\r\n        uint256 price;\r\n        bool forSale;\r\n    }\r\n    \r\n    mapping(string => Diamond) public diamonds;\r\n    mapping(string => bool) public diamondExists;\r\n    mapping(address => string[]) private userDiamonds;\r\n\r\n    event OwnershipTransferred(string indexed diamondId, address indexed oldOwner, address indexed newOwner);\r\n    event DiamondForSale(string indexed diamondId, uint256 price);\r\n    event DiamondSold(string indexed diamondId, address indexed oldOwner, address indexed newOwner, uint256 price);\r\n\r\n    function addDiamond(string memory _id, string memory _origin, uint256 _initialPrice) public {\r\n        require(!diamondExists[_id], \"Diamond already exists\");\r\n        \r\n        diamonds[_id] = Diamond({\r\n            id: _id,\r\n            origin: _origin,\r\n            currentOwner: msg.sender,\r\n            transferHistory: new address[](0),\r\n            price: _initialPrice,\r\n            forSale: false\r\n        });\r\n        \r\n        diamondExists[_id] = true;\r\n        userDiamonds[msg.sender].push(_id);\r\n    }\r\n\r\n    function transferOwnership(string memory _id, address _newOwner) public {\r\n        require(diamondExists[_id], \"Diamond does not exist\");\r\n        require(msg.sender == diamonds[_id].currentOwner, \"Only the current owner can transfer ownership\");\r\n        \r\n        diamonds[_id].transferHistory.push(diamonds[_id].currentOwner);\r\n        \r\n        address oldOwner = diamonds[_id].currentOwner;\r\n        diamonds[_id].currentOwner = _newOwner;\r\n        diamonds[_id].forSale = false;\r\n\r\n        // Update userDiamonds mapping\r\n        removeDiamondFromUser(oldOwner, _id);\r\n        userDiamonds[_newOwner].push(_id);\r\n\r\n        emit OwnershipTransferred(_id, oldOwner, _newOwner);\r\n    }\r\n\r\n    function getTransferHistory(string memory _id) public view returns (string[] memory) {\r\n        require(diamondExists[_id], \"Diamond does not exist\");\r\n        \r\n        address[] memory history = diamonds[_id].transferHistory;\r\n        string[] memory historyStrings = new string[](history.length);\r\n        \r\n        for (uint i = 0; i < history.length; i++) {\r\n            historyStrings[i] = addressToString(history[i]);\r\n        }\r\n        \r\n        return historyStrings;\r\n    }\r\n\r\n    function addressToString(address _addr) internal pure returns (string memory) {\r\n        bytes32 value = bytes32(uint256(uint160(_addr)));\r\n        bytes memory alphabet = \"0123456789abcdef\";\r\n        bytes memory str = new bytes(42);\r\n        str[0] = '0';\r\n        str[1] = 'x';\r\n        for (uint256 i = 0; i < 20; i++) {\r\n            str[2+i*2] = alphabet[uint8(value[i + 12] >> 4)];\r\n            str[3+i*2] = alphabet[uint8(value[i + 12] & 0x0f)];\r\n        }\r\n        return string(str);\r\n    }\r\n\r\n    function setForSale(string memory _id, uint256 _price) public {\r\n        require(diamondExists[_id], \"Diamond does not exist\");\r\n        require(msg.sender == diamonds[_id].currentOwner, \"Only the current owner can set the diamond for sale\");\r\n        \r\n        diamonds[_id].price = _price;\r\n        diamonds[_id].forSale = true;\r\n\r\n        emit DiamondForSale(_id, _price);\r\n    }\r\n\r\n \r\n    function buyDiamond(string memory _id) public payable {\r\n        require(diamondExists[_id], \"Error 1: Diamond does not exist\");\r\n        require(diamonds[_id].forSale, \"Error 2: Diamond is not for sale\");\r\n        require(msg.value >= diamonds[_id].price, \"Error 3: Insufficient payment\");\r\n        require(msg.sender != diamonds[_id].currentOwner, \"Error 4: Owner cannot buy their own diamond\");\r\n\r\n        address payable oldOwner = payable(diamonds[_id].currentOwner);\r\n        uint256 price = diamonds[_id].price;\r\n\r\n        // Update ownership\r\n        diamonds[_id].transferHistory.push(diamonds[_id].currentOwner);\r\n        diamonds[_id].currentOwner = msg.sender;\r\n        diamonds[_id].forSale = false;\r\n\r\n        // Update userDiamonds mapping\r\n        removeDiamondFromUser(oldOwner, _id);\r\n        userDiamonds[msg.sender].push(_id);\r\n\r\n        // Transfer the payment to the old owner\r\n        (bool sent, ) = oldOwner.call{value: price}(\"\");\r\n        require(sent, \"Error 5: Failed to send Ether\");\r\n\r\n        // Refund any excess payment\r\n        uint256 excess = msg.value - price;\r\n        if (excess > 0) {\r\n            (bool refundSent, ) = payable(msg.sender).call{value: excess}(\"\");\r\n            require(refundSent, \"Error 6: Failed to refund excess\");\r\n        }\r\n\r\n        emit DiamondSold(_id, oldOwner, msg.sender, price);\r\n    }\r\n\r\n    function cancelSale(string memory _id) public {\r\n        require(diamondExists[_id], \"Diamond does not exist\");\r\n        require(msg.sender == diamonds[_id].currentOwner, \"Only the current owner can cancel the sale\");\r\n        require(diamonds[_id].forSale, \"Diamond is not for sale\");\r\n\r\n        diamonds[_id].forSale = false;\r\n    }\r\n\r\n    function getUserDiamonds(address _user) public view returns (string[] memory) {\r\n        return userDiamonds[_user];\r\n    }\r\n\r\n    function removeDiamondFromUser(address _user, string memory _diamondId) internal {\r\n        string[] storage userDiamondsList = userDiamonds[_user];\r\n        for (uint i = 0; i < userDiamondsList.length; i++) {\r\n            if (keccak256(bytes(userDiamondsList[i])) == keccak256(bytes(_diamondId))) {\r\n                // Move the last element to the place of the removed element\r\n                userDiamondsList[i] = userDiamondsList[userDiamondsList.length - 1];\r\n                // Remove the last element\r\n                userDiamondsList.pop();\r\n                break;\r\n            }\r\n        }\r\n    }\r\n}",
  "sourcePath": "D:\\DLOC\\contracts\\DiamondTracibility.sol",
  "compiler": {
    "name": "solc",
    "version": "0.8.19+commit.7dd6d404.Emscripten.clang"
  },
  "schemaVersion": "3.4.16",
  "updatedAt": "2024-10-07T18:22:24.573Z",
  "devdoc": {
    "kind": "dev",
    "methods": {},
    "version": 1
  },
  "userdoc": {
    "kind": "user",
    "methods": {},
    "version": 1
  }
}