{
  "contractName": "Diamond",
  "abi": [
    {
      "anonymous": false,
      "inputs": [
        {
          "indexed": true,
          "internalType": "string",
          "name": "diamondId",
          "type": "string"
        },
        {
          "indexed": false,
          "internalType": "uint256",
          "name": "price",
          "type": "uint256"
        }
      ],
      "name": "DiamondForSale",
      "type": "event"
    },
    {
      "anonymous": false,
      "inputs": [
        {
          "indexed": true,
          "internalType": "string",
          "name": "diamondId",
          "type": "string"
        },
        {
          "indexed": true,
          "internalType": "address",
          "name": "oldOwner",
          "type": "address"
        },
        {
          "indexed": true,
          "internalType": "address",
          "name": "newOwner",
          "type": "address"
        },
        {
          "indexed": false,
          "internalType": "uint256",
          "name": "price",
          "type": "uint256"
        }
      ],
      "name": "DiamondSold",
      "type": "event"
    },
    {
      "anonymous": false,
      "inputs": [
        {
          "indexed": true,
          "internalType": "string",
          "name": "diamondId",
          "type": "string"
        },
        {
          "indexed": true,
          "internalType": "address",
          "name": "oldOwner",
          "type": "address"
        },
        {
          "indexed": true,
          "internalType": "address",
          "name": "newOwner",
          "type": "address"
        }
      ],
      "name": "OwnershipTransferred",
      "type": "event"
    },
    {
      "inputs": [
        {
          "internalType": "string",
          "name": "",
          "type": "string"
        }
      ],
      "name": "diamondExists",
      "outputs": [
        {
          "internalType": "bool",
          "name": "",
          "type": "bool"
        }
      ],
      "stateMutability": "view",
      "type": "function",
      "constant": true
    },
    {
      "inputs": [
        {
          "internalType": "string",
          "name": "",
          "type": "string"
        }
      ],
      "name": "diamonds",
      "outputs": [
        {
          "internalType": "string",
          "name": "id",
          "type": "string"
        },
        {
          "internalType": "string",
          "name": "origin",
          "type": "string"
        },
        {
          "internalType": "address",
          "name": "currentOwner",
          "type": "address"
        },
        {
          "internalType": "uint256",
          "name": "price",
          "type": "uint256"
        },
        {
          "internalType": "bool",
          "name": "forSale",
          "type": "bool"
        }
      ],
      "stateMutability": "view",
      "type": "function",
      "constant": true
    },
    {
      "stateMutability": "payable",
      "type": "receive",
      "payable": true
    },
    {
      "inputs": [
        {
          "internalType": "string",
          "name": "_id",
          "type": "string"
        },
        {
          "internalType": "string",
          "name": "_origin",
          "type": "string"
        },
        {
          "internalType": "uint256",
          "name": "_initialPrice",
          "type": "uint256"
        }
      ],
      "name": "addDiamond",
      "outputs": [],
      "stateMutability": "nonpayable",
      "type": "function"
    },
    {
      "inputs": [
        {
          "internalType": "string",
          "name": "_id",
          "type": "string"
        },
        {
          "internalType": "address",
          "name": "_newOwner",
          "type": "address"
        }
      ],
      "name": "transferOwnership",
      "outputs": [],
      "stateMutability": "nonpayable",
      "type": "function"
    },
    {
      "inputs": [
        {
          "internalType": "string",
          "name": "_id",
          "type": "string"
        }
      ],
      "name": "getTransferHistory",
      "outputs": [
        {
          "internalType": "string[]",
          "name": "",
          "type": "string[]"
        }
      ],
      "stateMutability": "view",
      "type": "function",
      "constant": true
    },
    {
      "inputs": [
        {
          "internalType": "string",
          "name": "_id",
          "type": "string"
        },
        {
          "internalType": "uint256",
          "name": "_price",
          "type": "uint256"
        }
      ],
      "name": "setForSale",
      "outputs": [],
      "stateMutability": "nonpayable",
      "type": "function"
    },
    {
      "inputs": [
        {
          "internalType": "string",
          "name": "_id",
          "type": "string"
        }
      ],
      "name": "buyDiamond",
      "outputs": [],
      "stateMutability": "payable",
      "type": "function",
      "payable": true
    },
    {
      "inputs": [
        {
          "internalType": "string",
          "name": "_id",
          "type": "string"
        }
      ],
      "name": "cancelSale",
      "outputs": [],
      "stateMutability": "nonpayable",
      "type": "function"
    },
    {
      "inputs": [
        {
          "internalType": "address",
          "name": "_user",
          "type": "address"
        }
      ],
      "name": "getUserDiamonds",
      "outputs": [
        {
          "internalType": "string[]",
          "name": "",
          "type": "string[]"
        }
      ],
      "stateMutability": "view",
      "type": "function",
      "constant": true
    }
  ],
  "bytecode": "0x608060405234801561001057600080fd5b50612d19806100206000396000f3fe60806040526004361061008a5760003560e01c806379885fa21161005957806379885fa2146101415780637b2cca7c1461017e578063c0e793c2146101bb578063eb4849cf146101e4578063f25abcba1461022557610091565b80631e31b9a5146100965780632977f78a146100b25780635801dac9146100db5780636b4a17f01461011857610091565b3661009157005b600080fd5b6100b060048036038101906100ab9190611c91565b61024e565b005b3480156100be57600080fd5b506100d960048036038101906100d49190611c91565b6107a7565b005b3480156100e757600080fd5b5061010260048036038101906100fd9190611c91565b61096b565b60405161010f9190611cf5565b60405180910390f35b34801561012457600080fd5b5061013f600480360381019061013a9190611d46565b6109a1565b005b34801561014d57600080fd5b5061016860048036038101906101639190611e00565b610b6c565b6040516101759190611f6e565b60405180910390f35b34801561018a57600080fd5b506101a560048036038101906101a09190611c91565b610c84565b6040516101b29190611f6e565b60405180910390f35b3480156101c757600080fd5b506101e260048036038101906101dd9190611f90565b610e58565b005b3480156101f057600080fd5b5061020b60048036038101906102069190611c91565b611204565b60405161021c959493929190612054565b60405180910390f35b34801561023157600080fd5b5061024c600480360381019061024791906120b5565b61138d565b005b60018160405161025e919061217c565b908152602001604051809103902060009054906101000a900460ff166102b9576040517f08c379a00000000000000000000000000000000000000000000000000000000081526004016102b0906121df565b60405180910390fd5b6000816040516102c9919061217c565b908152602001604051809103902060050160009054906101000a900460ff16610327576040517f08c379a000000000000000000000000000000000000000000000000000000000815260040161031e9061224b565b60405180910390fd5b600081604051610337919061217c565b908152602001604051809103902060020160009054906101000a900473ffffffffffffffffffffffffffffffffffffffff1673ffffffffffffffffffffffffffffffffffffffff163373ffffffffffffffffffffffffffffffffffffffff16036103d6576040517f08c379a00000000000000000000000000000000000000000000000000000000081526004016103cd906122dd565b60405180910390fd5b600080826040516103e7919061217c565b908152602001604051809103902060020160009054906101000a900473ffffffffffffffffffffffffffffffffffffffff1690506000808360405161042c919061217c565b9081526020016040518091039020600401549050600083604051610450919061217c565b9081526020016040518091039020600301600084604051610471919061217c565b908152602001604051809103902060020160009054906101000a900473ffffffffffffffffffffffffffffffffffffffff169080600181540180825580915050600190039060005260206000200160009091909190916101000a81548173ffffffffffffffffffffffffffffffffffffffff021916908373ffffffffffffffffffffffffffffffffffffffff16021790555033600084604051610514919061217c565b908152602001604051809103902060020160006101000a81548173ffffffffffffffffffffffffffffffffffffffff021916908373ffffffffffffffffffffffffffffffffffffffff16021790555060008084604051610574919061217c565b908152602001604051809103902060050160006101000a81548160ff0219169083151502179055506105a68284611610565b600260003373ffffffffffffffffffffffffffffffffffffffff1673ffffffffffffffffffffffffffffffffffffffff168152602001908152602001600020839080600181540180825580915050600190039060005260206000200160009091909190915090816106179190612509565b508173ffffffffffffffffffffffffffffffffffffffff166108fc829081150290604051600060405180830381858888f1935050505015801561065e573d6000803e3d6000fd5b506000813461066d919061260a565b905060008111156107265760003373ffffffffffffffffffffffffffffffffffffffff168260405161069e9061266f565b60006040518083038185875af1925050503d80600081146106db576040519150601f19603f3d011682016040523d82523d6000602084013e6106e0565b606091505b5050905080610724576040517f08c379a000000000000000000000000000000000000000000000000000000000815260040161071b906126d0565b60405180910390fd5b505b3373ffffffffffffffffffffffffffffffffffffffff168373ffffffffffffffffffffffffffffffffffffffff1685604051610762919061217c565b60405180910390207f9d3909c424316452b4b0ae0b3694f4c8db24789ce955d65f096f09d05e3e49ee8560405161079991906126f0565b60405180910390a450505050565b6001816040516107b7919061217c565b908152602001604051809103902060009054906101000a900460ff16610812576040517f08c379a000000000000000000000000000000000000000000000000000000000815260040161080990612757565b60405180910390fd5b600081604051610822919061217c565b908152602001604051809103902060020160009054906101000a900473ffffffffffffffffffffffffffffffffffffffff1673ffffffffffffffffffffffffffffffffffffffff163373ffffffffffffffffffffffffffffffffffffffff16146108c1576040517f08c379a00000000000000000000000000000000000000000000000000000000081526004016108b8906127e9565b60405180910390fd5b6000816040516108d1919061217c565b908152602001604051809103902060050160009054906101000a900460ff1661092f576040517f08c379a000000000000000000000000000000000000000000000000000000000815260040161092690612855565b60405180910390fd5b60008082604051610940919061217c565b908152602001604051809103902060050160006101000a81548160ff02191690831515021790555050565b6001818051602081018201805184825260208301602085012081835280955050505050506000915054906101000a900460ff1681565b6001826040516109b1919061217c565b908152602001604051809103902060009054906101000a900460ff16610a0c576040517f08c379a0000000000000000000000000000000000000000000000000000000008152600401610a0390612757565b60405180910390fd5b600082604051610a1c919061217c565b908152602001604051809103902060020160009054906101000a900473ffffffffffffffffffffffffffffffffffffffff1673ffffffffffffffffffffffffffffffffffffffff163373ffffffffffffffffffffffffffffffffffffffff1614610abb576040517f08c379a0000000000000000000000000000000000000000000000000000000008152600401610ab2906128e7565b60405180910390fd5b80600083604051610acc919061217c565b9081526020016040518091039020600401819055506001600083604051610af3919061217c565b908152602001604051809103902060050160006101000a81548160ff02191690831515021790555081604051610b29919061217c565b60405180910390207f4692d9e2fb5c5452296106286f77ca8eb0d9857fc16bec01a11b328582b17f6d82604051610b6091906126f0565b60405180910390a25050565b6060600260008373ffffffffffffffffffffffffffffffffffffffff1673ffffffffffffffffffffffffffffffffffffffff168152602001908152602001600020805480602002602001604051908101604052809291908181526020016000905b82821015610c79578382906000526020600020018054610bec9061232c565b80601f0160208091040260200160405190810160405280929190818152602001828054610c189061232c565b8015610c655780601f10610c3a57610100808354040283529160200191610c65565b820191906000526020600020905b815481529060010190602001808311610c4857829003601f168201915b505050505081526020019060010190610bcd565b505050509050919050565b6060600182604051610c96919061217c565b908152602001604051809103902060009054906101000a900460ff16610cf1576040517f08c379a0000000000000000000000000000000000000000000000000000000008152600401610ce890612757565b60405180910390fd5b60008083604051610d02919061217c565b9081526020016040518091039020600301805480602002602001604051908101604052809291908181526020018280548015610d9357602002820191906000526020600020905b8160009054906101000a900473ffffffffffffffffffffffffffffffffffffffff1673ffffffffffffffffffffffffffffffffffffffff1681526020019060010190808311610d49575b505050505090506000815167ffffffffffffffff811115610db757610db6611b66565b5b604051908082528060200260200182016040528015610dea57816020015b6060815260200190600190039081610dd55790505b50905060005b8251811015610e4d57610e1c838281518110610e0f57610e0e612907565b5b6020026020010151611745565b828281518110610e2f57610e2e612907565b5b60200260200101819052508080610e4590612936565b915050610df0565b508092505050919050565b600182604051610e68919061217c565b908152602001604051809103902060009054906101000a900460ff16610ec3576040517f08c379a0000000000000000000000000000000000000000000000000000000008152600401610eba90612757565b60405180910390fd5b600082604051610ed3919061217c565b908152602001604051809103902060020160009054906101000a900473ffffffffffffffffffffffffffffffffffffffff1673ffffffffffffffffffffffffffffffffffffffff163373ffffffffffffffffffffffffffffffffffffffff1614610f72576040517f08c379a0000000000000000000000000000000000000000000000000000000008152600401610f69906129f0565b60405180910390fd5b600082604051610f82919061217c565b9081526020016040518091039020600301600083604051610fa3919061217c565b908152602001604051809103902060020160009054906101000a900473ffffffffffffffffffffffffffffffffffffffff169080600181540180825580915050600190039060005260206000200160009091909190916101000a81548173ffffffffffffffffffffffffffffffffffffffff021916908373ffffffffffffffffffffffffffffffffffffffff16021790555060008083604051611046919061217c565b908152602001604051809103902060020160009054906101000a900473ffffffffffffffffffffffffffffffffffffffff1690508160008460405161108b919061217c565b908152602001604051809103902060020160006101000a81548173ffffffffffffffffffffffffffffffffffffffff021916908373ffffffffffffffffffffffffffffffffffffffff160217905550600080846040516110eb919061217c565b908152602001604051809103902060050160006101000a81548160ff02191690831515021790555061111d8184611610565b600260008373ffffffffffffffffffffffffffffffffffffffff1673ffffffffffffffffffffffffffffffffffffffff1681526020019081526020016000208390806001815401808255809150506001900390600052602060002001600090919091909150908161118e9190612509565b508173ffffffffffffffffffffffffffffffffffffffff168173ffffffffffffffffffffffffffffffffffffffff16846040516111cb919061217c565b60405180910390207f6840904f5b31827f74e1497360da245f56e530c8c3de3163a2d31f11493273c660405160405180910390a4505050565b60008180516020810182018051848252602083016020850120818352809550505050505060009150905080600001805461123d9061232c565b80601f01602080910402602001604051908101604052809291908181526020018280546112699061232c565b80156112b65780601f1061128b576101008083540402835291602001916112b6565b820191906000526020600020905b81548152906001019060200180831161129957829003601f168201915b5050505050908060010180546112cb9061232c565b80601f01602080910402602001604051908101604052809291908181526020018280546112f79061232c565b80156113445780601f1061131957610100808354040283529160200191611344565b820191906000526020600020905b81548152906001019060200180831161132757829003601f168201915b5050505050908060020160009054906101000a900473ffffffffffffffffffffffffffffffffffffffff16908060040154908060050160009054906101000a900460ff16905085565b60018360405161139d919061217c565b908152602001604051809103902060009054906101000a900460ff16156113f9576040517f08c379a00000000000000000000000000000000000000000000000000000000081526004016113f090612a5c565b60405180910390fd5b6040518060c001604052808481526020018381526020013373ffffffffffffffffffffffffffffffffffffffff168152602001600067ffffffffffffffff81111561144757611446611b66565b5b6040519080825280602002602001820160405280156114755781602001602082028036833780820191505090505b50815260200182815260200160001515815250600084604051611498919061217c565b908152602001604051809103902060008201518160000190816114bb9190612509565b5060208201518160010190816114d19190612509565b5060408201518160020160006101000a81548173ffffffffffffffffffffffffffffffffffffffff021916908373ffffffffffffffffffffffffffffffffffffffff1602179055506060820151816003019080519060200190611535929190611a50565b506080820151816004015560a08201518160050160006101000a81548160ff02191690831515021790555090505060018084604051611574919061217c565b908152602001604051809103902060006101000a81548160ff021916908315150217905550600260003373ffffffffffffffffffffffffffffffffffffffff1673ffffffffffffffffffffffffffffffffffffffff1681526020019081526020016000208390806001815401808255809150506001900390600052602060002001600090919091909150908161160a9190612509565b50505050565b6000600260008473ffffffffffffffffffffffffffffffffffffffff1673ffffffffffffffffffffffffffffffffffffffff168152602001908152602001600020905060005b818054905081101561173f57828051906020012082828154811061167d5761167c612907565b5b906000526020600020016040516116949190612b14565b60405180910390200361172c5781600183805490506116b3919061260a565b815481106116c4576116c3612907565b5b906000526020600020018282815481106116e1576116e0612907565b5b9060005260206000200190816116f79190612b56565b508180548061170957611708612c3e565b5b6001900381819060005260206000200160006117259190611ada565b905561173f565b808061173790612936565b915050611656565b50505050565b606060008273ffffffffffffffffffffffffffffffffffffffff1660001b905060006040518060400160405280601081526020017f303132333435363738396162636465660000000000000000000000000000000081525090506000602a67ffffffffffffffff8111156117bc576117bb611b66565b5b6040519080825280601f01601f1916602001820160405280156117ee5781602001600182028036833780820191505090505b5090507f30000000000000000000000000000000000000000000000000000000000000008160008151811061182657611825612907565b5b60200101907effffffffffffffffffffffffffffffffffffffffffffffffffffffffffffff1916908160001a9053507f78000000000000000000000000000000000000000000000000000000000000008160018151811061188a57611889612907565b5b60200101907effffffffffffffffffffffffffffffffffffffffffffffffffffffffffffff1916908160001a90535060005b6014811015611a445782600485600c846118d69190612c6d565b602081106118e7576118e6612907565b5b1a60f81b7effffffffffffffffffffffffffffffffffffffffffffffffffffffffffffff1916901c60f81c60ff168151811061192657611925612907565b5b602001015160f81c60f81b8260028361193f9190612ca1565b600261194b9190612c6d565b8151811061195c5761195b612907565b5b60200101907effffffffffffffffffffffffffffffffffffffffffffffffffffffffffffff1916908160001a90535082600f60f81b85600c8461199f9190612c6d565b602081106119b0576119af612907565b5b1a60f81b1660f81c60ff16815181106119cc576119cb612907565b5b602001015160f81c60f81b826002836119e59190612ca1565b60036119f19190612c6d565b81518110611a0257611a01612907565b5b60200101907effffffffffffffffffffffffffffffffffffffffffffffffffffffffffffff1916908160001a9053508080611a3c90612936565b9150506118bc565b50809350505050919050565b828054828255906000526020600020908101928215611ac9579160200282015b82811115611ac85782518260006101000a81548173ffffffffffffffffffffffffffffffffffffffff021916908373ffffffffffffffffffffffffffffffffffffffff16021790555091602001919060010190611a70565b5b509050611ad69190611b1a565b5090565b508054611ae69061232c565b6000825580601f10611af85750611b17565b601f016020900490600052602060002090810190611b169190611b1a565b5b50565b5b80821115611b33576000816000905550600101611b1b565b5090565b6000604051905090565b600080fd5b600080fd5b600080fd5b600080fd5b6000601f19601f8301169050919050565b7f4e487b7100000000000000000000000000000000000000000000000000000000600052604160045260246000fd5b611b9e82611b55565b810181811067ffffffffffffffff82111715611bbd57611bbc611b66565b5b80604052505050565b6000611bd0611b37565b9050611bdc8282611b95565b919050565b600067ffffffffffffffff821115611bfc57611bfb611b66565b5b611c0582611b55565b9050602081019050919050565b82818337600083830152505050565b6000611c34611c2f84611be1565b611bc6565b905082815260208101848484011115611c5057611c4f611b50565b5b611c5b848285611c12565b509392505050565b600082601f830112611c7857611c77611b4b565b5b8135611c88848260208601611c21565b91505092915050565b600060208284031215611ca757611ca6611b41565b5b600082013567ffffffffffffffff811115611cc557611cc4611b46565b5b611cd184828501611c63565b91505092915050565b60008115159050919050565b611cef81611cda565b82525050565b6000602082019050611d0a6000830184611ce6565b92915050565b6000819050919050565b611d2381611d10565b8114611d2e57600080fd5b50565b600081359050611d4081611d1a565b92915050565b60008060408385031215611d5d57611d5c611b41565b5b600083013567ffffffffffffffff811115611d7b57611d7a611b46565b5b611d8785828601611c63565b9250506020611d9885828601611d31565b9150509250929050565b600073ffffffffffffffffffffffffffffffffffffffff82169050919050565b6000611dcd82611da2565b9050919050565b611ddd81611dc2565b8114611de857600080fd5b50565b600081359050611dfa81611dd4565b92915050565b600060208284031215611e1657611e15611b41565b5b6000611e2484828501611deb565b91505092915050565b600081519050919050565b600082825260208201905092915050565b6000819050602082019050919050565b600081519050919050565b600082825260208201905092915050565b60005b83811015611e93578082015181840152602081019050611e78565b60008484015250505050565b6000611eaa82611e59565b611eb48185611e64565b9350611ec4818560208601611e75565b611ecd81611b55565b840191505092915050565b6000611ee48383611e9f565b905092915050565b6000602082019050919050565b6000611f0482611e2d565b611f0e8185611e38565b935083602082028501611f2085611e49565b8060005b85811015611f5c5784840389528151611f3d8582611ed8565b9450611f4883611eec565b925060208a01995050600181019050611f24565b50829750879550505050505092915050565b60006020820190508181036000830152611f888184611ef9565b905092915050565b60008060408385031215611fa757611fa6611b41565b5b600083013567ffffffffffffffff811115611fc557611fc4611b46565b5b611fd185828601611c63565b9250506020611fe285828601611deb565b9150509250929050565b600082825260208201905092915050565b600061200882611e59565b6120128185611fec565b9350612022818560208601611e75565b61202b81611b55565b840191505092915050565b61203f81611dc2565b82525050565b61204e81611d10565b82525050565b600060a082019050818103600083015261206e8188611ffd565b905081810360208301526120828187611ffd565b90506120916040830186612036565b61209e6060830185612045565b6120ab6080830184611ce6565b9695505050505050565b6000806000606084860312156120ce576120cd611b41565b5b600084013567ffffffffffffffff8111156120ec576120eb611b46565b5b6120f886828701611c63565b935050602084013567ffffffffffffffff81111561211957612118611b46565b5b61212586828701611c63565b925050604061213686828701611d31565b9150509250925092565b600081905092915050565b600061215682611e59565b6121608185612140565b9350612170818560208601611e75565b80840191505092915050565b6000612188828461214b565b915081905092915050565b7f4572726f7220313a204469616d6f6e6420646f6573206e6f7420657869737400600082015250565b60006121c9601f83611fec565b91506121d482612193565b602082019050919050565b600060208201905081810360008301526121f8816121bc565b9050919050565b7f4572726f7220323a204469616d6f6e64206973206e6f7420666f722073616c65600082015250565b6000612235602083611fec565b9150612240826121ff565b602082019050919050565b6000602082019050818103600083015261226481612228565b9050919050565b7f4572726f7220343a204f776e65722063616e6e6f74206275792074686569722060008201527f6f776e206469616d6f6e64000000000000000000000000000000000000000000602082015250565b60006122c7602b83611fec565b91506122d28261226b565b604082019050919050565b600060208201905081810360008301526122f6816122ba565b9050919050565b7f4e487b7100000000000000000000000000000000000000000000000000000000600052602260045260246000fd5b6000600282049050600182168061234457607f821691505b602082108103612357576123566122fd565b5b50919050565b60008190508160005260206000209050919050565b60006020601f8301049050919050565b600082821b905092915050565b6000600883026123bf7fffffffffffffffffffffffffffffffffffffffffffffffffffffffffffffffff82612382565b6123c98683612382565b95508019841693508086168417925050509392505050565b6000819050919050565b60006124066124016123fc84611d10565b6123e1565b611d10565b9050919050565b6000819050919050565b612420836123eb565b61243461242c8261240d565b84845461238f565b825550505050565b600090565b61244961243c565b612454818484612417565b505050565b5b818110156124785761246d600082612441565b60018101905061245a565b5050565b601f8211156124bd5761248e8161235d565b61249784612372565b810160208510156124a6578190505b6124ba6124b285612372565b830182612459565b50505b505050565b600082821c905092915050565b60006124e0600019846008026124c2565b1980831691505092915050565b60006124f983836124cf565b9150826002028217905092915050565b61251282611e59565b67ffffffffffffffff81111561252b5761252a611b66565b5b612535825461232c565b61254082828561247c565b600060209050601f8311600181146125735760008415612561578287015190505b61256b85826124ed565b8655506125d3565b601f1984166125818661235d565b60005b828110156125a957848901518255600182019150602085019450602081019050612584565b868310156125c657848901516125c2601f8916826124cf565b8355505b6001600288020188555050505b505050505050565b7f4e487b7100000000000000000000000000000000000000000000000000000000600052601160045260246000fd5b600061261582611d10565b915061262083611d10565b9250828203905081811115612638576126376125db565b5b92915050565b600081905092915050565b50565b600061265960008361263e565b915061266482612649565b600082019050919050565b600061267a8261264c565b9150819050919050565b7f4572726f7220363a204661696c656420746f20726566756e6420657863657373600082015250565b60006126ba602083611fec565b91506126c582612684565b602082019050919050565b600060208201905081810360008301526126e9816126ad565b9050919050565b60006020820190506127056000830184612045565b92915050565b7f4469616d6f6e6420646f6573206e6f7420657869737400000000000000000000600082015250565b6000612741601683611fec565b915061274c8261270b565b602082019050919050565b6000602082019050818103600083015261277081612734565b9050919050565b7f4f6e6c79207468652063757272656e74206f776e65722063616e2063616e636560008201527f6c207468652073616c6500000000000000000000000000000000000000000000602082015250565b60006127d3602a83611fec565b91506127de82612777565b604082019050919050565b60006020820190508181036000830152612802816127c6565b9050919050565b7f4469616d6f6e64206973206e6f7420666f722073616c65000000000000000000600082015250565b600061283f601783611fec565b915061284a82612809565b602082019050919050565b6000602082019050818103600083015261286e81612832565b9050919050565b7f4f6e6c79207468652063757272656e74206f776e65722063616e20736574207460008201527f6865206469616d6f6e6420666f722073616c6500000000000000000000000000602082015250565b60006128d1603383611fec565b91506128dc82612875565b604082019050919050565b60006020820190508181036000830152612900816128c4565b9050919050565b7f4e487b7100000000000000000000000000000000000000000000000000000000600052603260045260246000fd5b600061294182611d10565b91507fffffffffffffffffffffffffffffffffffffffffffffffffffffffffffffffff8203612973576129726125db565b5b600182019050919050565b7f4f6e6c79207468652063757272656e74206f776e65722063616e207472616e7360008201527f666572206f776e65727368697000000000000000000000000000000000000000602082015250565b60006129da602d83611fec565b91506129e58261297e565b604082019050919050565b60006020820190508181036000830152612a09816129cd565b9050919050565b7f4469616d6f6e6420616c72656164792065786973747300000000000000000000600082015250565b6000612a46601683611fec565b9150612a5182612a10565b602082019050919050565b60006020820190508181036000830152612a7581612a39565b9050919050565b60008190508160005260206000209050919050565b60008154612a9e8161232c565b612aa8818661263e565b94506001821660008114612ac35760018114612ad857612b0b565b60ff1983168652811515820286019350612b0b565b612ae185612a7c565b60005b83811015612b0357815481890152600182019150602081019050612ae4565b838801955050505b50505092915050565b6000612b208284612a91565b915081905092915050565b600081549050612b3a8161232c565b9050919050565b60008190508160005260206000209050919050565b818103612b64575050612c3c565b612b6d82612b2b565b67ffffffffffffffff811115612b8657612b85611b66565b5b612b90825461232c565b612b9b82828561247c565b6000601f831160018114612bca5760008415612bb8578287015490505b612bc285826124ed565b865550612c35565b601f198416612bd887612b41565b9650612be38661235d565b60005b82811015612c0b57848901548255600182019150600185019450602081019050612be6565b86831015612c285784890154612c24601f8916826124cf565b8355505b6001600288020188555050505b5050505050505b565b7f4e487b7100000000000000000000000000000000000000000000000000000000600052603160045260246000fd5b6000612c7882611d10565b9150612c8383611d10565b9250828201905080821115612c9b57612c9a6125db565b5b92915050565b6000612cac82611d10565b9150612cb783611d10565b9250828202612cc581611d10565b91508282048414831517612cdc57612cdb6125db565b5b509291505056fea2646970667358221220f20ffa51d4406515f21d80f2d8fcb71d8c7ea7a0eeab0b6247fd6a89d5e2536f64736f6c63430008130033",
  "immutableReferences": {},
  "source": "// SPDX-License-Identifier: MIT\r\npragma solidity ^0.8.19;\r\n\r\ncontract Diamond {\r\n    receive() external payable {}\r\n    struct Diamond {\r\n        string id;\r\n        string origin;\r\n        address currentOwner;\r\n        address[] transferHistory;\r\n        uint256 price;\r\n        bool forSale;\r\n    }\r\n    \r\n    mapping(string => Diamond) public diamonds;\r\n    mapping(string => bool) public diamondExists;\r\n    mapping(address => string[]) private userDiamonds;\r\n\r\n    event OwnershipTransferred(string indexed diamondId, address indexed oldOwner, address indexed newOwner);\r\n    event DiamondForSale(string indexed diamondId, uint256 price);\r\n    event DiamondSold(string indexed diamondId, address indexed oldOwner, address indexed newOwner, uint256 price);\r\n\r\n    function addDiamond(string memory _id, string memory _origin, uint256 _initialPrice) public {\r\n        require(!diamondExists[_id], \"Diamond already exists\");\r\n        \r\n        diamonds[_id] = Diamond({\r\n            id: _id,\r\n            origin: _origin,\r\n            currentOwner: msg.sender,\r\n            transferHistory: new address[](0),\r\n            price: _initialPrice,\r\n            forSale: false\r\n        });\r\n        \r\n        diamondExists[_id] = true;\r\n        userDiamonds[msg.sender].push(_id);\r\n    }\r\n\r\n    function transferOwnership(string memory _id, address _newOwner) public {\r\n        require(diamondExists[_id], \"Diamond does not exist\");\r\n        require(msg.sender == diamonds[_id].currentOwner, \"Only the current owner can transfer ownership\");\r\n        \r\n        diamonds[_id].transferHistory.push(diamonds[_id].currentOwner);\r\n        \r\n        address oldOwner = diamonds[_id].currentOwner;\r\n        diamonds[_id].currentOwner = _newOwner;\r\n        diamonds[_id].forSale = false;\r\n\r\n        // Update userDiamonds mapping\r\n        removeDiamondFromUser(oldOwner, _id);\r\n        userDiamonds[_newOwner].push(_id);\r\n\r\n        emit OwnershipTransferred(_id, oldOwner, _newOwner);\r\n    }\r\n\r\n    function getTransferHistory(string memory _id) public view returns (string[] memory) {\r\n        require(diamondExists[_id], \"Diamond does not exist\");\r\n        \r\n        address[] memory history = diamonds[_id].transferHistory;\r\n        string[] memory historyStrings = new string[](history.length);\r\n        \r\n        for (uint i = 0; i < history.length; i++) {\r\n            historyStrings[i] = addressToString(history[i]);\r\n        }\r\n        \r\n        return historyStrings;\r\n    }\r\n\r\n    function addressToString(address _addr) internal pure returns (string memory) {\r\n        bytes32 value = bytes32(uint256(uint160(_addr)));\r\n        bytes memory alphabet = \"0123456789abcdef\";\r\n        bytes memory str = new bytes(42);\r\n        str[0] = '0';\r\n        str[1] = 'x';\r\n        for (uint256 i = 0; i < 20; i++) {\r\n            str[2+i*2] = alphabet[uint8(value[i + 12] >> 4)];\r\n            str[3+i*2] = alphabet[uint8(value[i + 12] & 0x0f)];\r\n        }\r\n        return string(str);\r\n    }\r\n\r\n    function setForSale(string memory _id, uint256 _price) public {\r\n        require(diamondExists[_id], \"Diamond does not exist\");\r\n        require(msg.sender == diamonds[_id].currentOwner, \"Only the current owner can set the diamond for sale\");\r\n        \r\n        diamonds[_id].price = _price;\r\n        diamonds[_id].forSale = true;\r\n\r\n        emit DiamondForSale(_id, _price);\r\n    }\r\n\r\n \r\n    function buyDiamond(string memory _id) public payable {\r\n        require(diamondExists[_id], \"Error 1: Diamond does not exist\");\r\n        require(diamonds[_id].forSale, \"Error 2: Diamond is not for sale\");\r\n        // require(msg.value >= diamonds[_id].price, \"Error 3: Insufficient payment\");\r\n        require(msg.sender != diamonds[_id].currentOwner, \"Error 4: Owner cannot buy their own diamond\");\r\n\r\n        address payable oldOwner = payable(diamonds[_id].currentOwner);\r\n        uint256 price = diamonds[_id].price;\r\n\r\n        // Update ownership\r\n        diamonds[_id].transferHistory.push(diamonds[_id].currentOwner);\r\n        diamonds[_id].currentOwner = msg.sender;\r\n        diamonds[_id].forSale = false;\r\n\r\n        // Update userDiamonds mapping\r\n        removeDiamondFromUser(oldOwner, _id);\r\n        userDiamonds[msg.sender].push(_id);\r\n        oldOwner.transfer(price);\r\n        // Transfer the payment to the old owner\r\n        // (bool sent, ) = oldOwner.call{value: price}(\"\");\r\n        // require(sent, \"Error 5: Failed to send Ether\");\r\n\r\n        // Refund any excess payment\r\n        uint256 excess = msg.value - price;\r\n        if (excess > 0) {\r\n            (bool refundSent, ) = payable(msg.sender).call{value: excess}(\"\");\r\n            require(refundSent, \"Error 6: Failed to refund excess\");\r\n        }\r\n\r\n        emit DiamondSold(_id, oldOwner, msg.sender, price);\r\n    }\r\n\r\n    function cancelSale(string memory _id) public {\r\n        require(diamondExists[_id], \"Diamond does not exist\");\r\n        require(msg.sender == diamonds[_id].currentOwner, \"Only the current owner can cancel the sale\");\r\n        require(diamonds[_id].forSale, \"Diamond is not for sale\");\r\n\r\n        diamonds[_id].forSale = false;\r\n    }\r\n\r\n    function getUserDiamonds(address _user) public view returns (string[] memory) {\r\n        return userDiamonds[_user];\r\n    }\r\n\r\n    function removeDiamondFromUser(address _user, string memory _diamondId) internal {\r\n        string[] storage userDiamondsList = userDiamonds[_user];\r\n        for (uint i = 0; i < userDiamondsList.length; i++) {\r\n            if (keccak256(bytes(userDiamondsList[i])) == keccak256(bytes(_diamondId))) {\r\n                // Move the last element to the place of the removed element\r\n                userDiamondsList[i] = userDiamondsList[userDiamondsList.length - 1];\r\n                // Remove the last element\r\n                userDiamondsList.pop();\r\n                break;\r\n            }\r\n        }\r\n    }\r\n}",
  "sourcePath": "D:\\DLOC\\contracts\\Diamond.sol",
  "compiler": {
    "name": "solc",
    "version": "0.8.19+commit.7dd6d404.Emscripten.clang"
  },
  "schemaVersion": "3.4.16",
  "updatedAt": "2024-10-07T21:46:18.700Z",
  "networkType": "ethereum",
  "devdoc": {
    "kind": "dev",
    "methods": {},
    "version": 1
  },
  "userdoc": {
    "kind": "user",
    "methods": {},
    "version": 1
  }
}