{
  "contractName": "MetalCertification",
  "abi": [
    {
      "anonymous": false,
      "inputs": [
        {
          "indexed": true,
          "internalType": "string",
          "name": "itemId",
          "type": "string"
        },
        {
          "indexed": false,
          "internalType": "string",
          "name": "certifyingAuthority",
          "type": "string"
        },
        {
          "indexed": false,
          "internalType": "string",
          "name": "certificationDetails",
          "type": "string"
        }
      ],
      "name": "Certified",
      "type": "event"
    },
    {
      "inputs": [
        {
          "internalType": "string",
          "name": "",
          "type": "string"
        }
      ],
      "name": "certificationExists",
      "outputs": [
        {
          "internalType": "bool",
          "name": "",
          "type": "bool"
        }
      ],
      "stateMutability": "view",
      "type": "function"
    },
    {
      "inputs": [
        {
          "internalType": "string",
          "name": "",
          "type": "string"
        }
      ],
      "name": "certifications",
      "outputs": [
        {
          "internalType": "string",
          "name": "itemId",
          "type": "string"
        },
        {
          "internalType": "string",
          "name": "certifyingAuthority",
          "type": "string"
        },
        {
          "internalType": "string",
          "name": "certificationDetails",
          "type": "string"
        },
        {
          "internalType": "bool",
          "name": "isCertified",
          "type": "bool"
        }
      ],
      "stateMutability": "view",
      "type": "function"
    },
    {
      "inputs": [
        {
          "internalType": "string",
          "name": "_itemId",
          "type": "string"
        },
        {
          "internalType": "string",
          "name": "_certifyingAuthority",
          "type": "string"
        },
        {
          "internalType": "string",
          "name": "_details",
          "type": "string"
        }
      ],
      "name": "certifyItem",
      "outputs": [],
      "stateMutability": "nonpayable",
      "type": "function"
    },
    {
      "inputs": [
        {
          "internalType": "string",
          "name": "_itemId",
          "type": "string"
        }
      ],
      "name": "getCertificationDetails",
      "outputs": [
        {
          "internalType": "string",
          "name": "",
          "type": "string"
        },
        {
          "internalType": "string",
          "name": "",
          "type": "string"
        }
      ],
      "stateMutability": "view",
      "type": "function"
    },
    {
      "inputs": [
        {
          "internalType": "string",
          "name": "_itemId",
          "type": "string"
        }
      ],
      "name": "verifyCertification",
      "outputs": [
        {
          "internalType": "bool",
          "name": "",
          "type": "bool"
        }
      ],
      "stateMutability": "view",
      "type": "function"
    }
  ],
  "bytecode": "0x608060405234801561001057600080fd5b50610f87806100206000396000f3fe608060405234801561001057600080fd5b50600436106100575760003560e01c806364e56e0b1461005c57806384c7912014610078578063f2d10de8146100a8578063f57cc583146100d8578063fc6b38ad14610109575b600080fd5b61007660048036038101906100719190610908565b61013c565b005b610092600480360381019061008d91906109af565b6102d9565b60405161009f9190610a13565b60405180910390f35b6100c260048036038101906100bd91906109af565b61030e565b6040516100cf9190610a13565b60405180910390f35b6100f260048036038101906100ed91906109af565b610344565b604051610100929190610aad565b60405180910390f35b610123600480360381019061011e91906109af565b6105c3565b6040516101339493929190610ae4565b60405180910390f35b60018360405161014c9190610b7a565b908152602001604051809103902060009054906101000a900460ff16156101a8576040517f08c379a000000000000000000000000000000000000000000000000000000000815260040161019f90610bdd565b60405180910390fd5b6040518060800160405280848152602001838152602001828152602001600115158152506000846040516101dc9190610b7a565b908152602001604051809103902060008201518160000190816101ff9190610e13565b5060208201518160010190816102159190610e13565b50604082015181600201908161022b9190610e13565b5060608201518160030160006101000a81548160ff021916908315150217905550905050600180846040516102609190610b7a565b908152602001604051809103902060006101000a81548160ff021916908315150217905550826040516102939190610b7a565b60405180910390207f64b0c00a3fb575f6c046c4286ea906ffc68841dcb0dd6c0acace51e60efd122783836040516102cc929190610aad565b60405180910390a2505050565b60006001826040516102eb9190610b7a565b908152602001604051809103902060009054906101000a900460ff169050919050565b6001818051602081018201805184825260208301602085012081835280955050505050506000915054906101000a900460ff1681565b6060806001836040516103579190610b7a565b908152602001604051809103902060009054906101000a900460ff166103b2576040517f08c379a00000000000000000000000000000000000000000000000000000000081526004016103a990610f31565b60405180910390fd5b600080846040516103c39190610b7a565b90815260200160405180910390206040518060800160405290816000820180546103ec90610c2c565b80601f016020809104026020016040519081016040528092919081815260200182805461041890610c2c565b80156104655780601f1061043a57610100808354040283529160200191610465565b820191906000526020600020905b81548152906001019060200180831161044857829003601f168201915b5050505050815260200160018201805461047e90610c2c565b80601f01602080910402602001604051908101604052809291908181526020018280546104aa90610c2c565b80156104f75780601f106104cc576101008083540402835291602001916104f7565b820191906000526020600020905b8154815290600101906020018083116104da57829003601f168201915b5050505050815260200160028201805461051090610c2c565b80601f016020809104026020016040519081016040528092919081815260200182805461053c90610c2c565b80156105895780601f1061055e57610100808354040283529160200191610589565b820191906000526020600020905b81548152906001019060200180831161056c57829003601f168201915b505050505081526020016003820160009054906101000a900460ff1615151515815250509050806020015181604001519250925050915091565b6000818051602081018201805184825260208301602085012081835280955050505050506000915090508060000180546105fc90610c2c565b80601f016020809104026020016040519081016040528092919081815260200182805461062890610c2c565b80156106755780601f1061064a57610100808354040283529160200191610675565b820191906000526020600020905b81548152906001019060200180831161065857829003601f168201915b50505050509080600101805461068a90610c2c565b80601f01602080910402602001604051908101604052809291908181526020018280546106b690610c2c565b80156107035780601f106106d857610100808354040283529160200191610703565b820191906000526020600020905b8154815290600101906020018083116106e657829003601f168201915b50505050509080600201805461071890610c2c565b80601f016020809104026020016040519081016040528092919081815260200182805461074490610c2c565b80156107915780601f1061076657610100808354040283529160200191610791565b820191906000526020600020905b81548152906001019060200180831161077457829003601f168201915b5050505050908060030160009054906101000a900460ff16905084565b6000604051905090565b600080fd5b600080fd5b600080fd5b600080fd5b6000601f19601f8301169050919050565b7f4e487b7100000000000000000000000000000000000000000000000000000000600052604160045260246000fd5b610815826107cc565b810181811067ffffffffffffffff82111715610834576108336107dd565b5b80604052505050565b60006108476107ae565b9050610853828261080c565b919050565b600067ffffffffffffffff821115610873576108726107dd565b5b61087c826107cc565b9050602081019050919050565b82818337600083830152505050565b60006108ab6108a684610858565b61083d565b9050828152602081018484840111156108c7576108c66107c7565b5b6108d2848285610889565b509392505050565b600082601f8301126108ef576108ee6107c2565b5b81356108ff848260208601610898565b91505092915050565b600080600060608486031215610921576109206107b8565b5b600084013567ffffffffffffffff81111561093f5761093e6107bd565b5b61094b868287016108da565b935050602084013567ffffffffffffffff81111561096c5761096b6107bd565b5b610978868287016108da565b925050604084013567ffffffffffffffff811115610999576109986107bd565b5b6109a5868287016108da565b9150509250925092565b6000602082840312156109c5576109c46107b8565b5b600082013567ffffffffffffffff8111156109e3576109e26107bd565b5b6109ef848285016108da565b91505092915050565b60008115159050919050565b610a0d816109f8565b82525050565b6000602082019050610a286000830184610a04565b92915050565b600081519050919050565b600082825260208201905092915050565b60005b83811015610a68578082015181840152602081019050610a4d565b60008484015250505050565b6000610a7f82610a2e565b610a898185610a39565b9350610a99818560208601610a4a565b610aa2816107cc565b840191505092915050565b60006040820190508181036000830152610ac78185610a74565b90508181036020830152610adb8184610a74565b90509392505050565b60006080820190508181036000830152610afe8187610a74565b90508181036020830152610b128186610a74565b90508181036040830152610b268185610a74565b9050610b356060830184610a04565b95945050505050565b600081905092915050565b6000610b5482610a2e565b610b5e8185610b3e565b9350610b6e818560208601610a4a565b80840191505092915050565b6000610b868284610b49565b915081905092915050565b7f4974656d20697320616c72656164792063657274696669656400000000000000600082015250565b6000610bc7601983610a39565b9150610bd282610b91565b602082019050919050565b60006020820190508181036000830152610bf681610bba565b9050919050565b7f4e487b7100000000000000000000000000000000000000000000000000000000600052602260045260246000fd5b60006002820490506001821680610c4457607f821691505b602082108103610c5757610c56610bfd565b5b50919050565b60008190508160005260206000209050919050565b60006020601f8301049050919050565b600082821b905092915050565b600060088302610cbf7fffffffffffffffffffffffffffffffffffffffffffffffffffffffffffffffff82610c82565b610cc98683610c82565b95508019841693508086168417925050509392505050565b6000819050919050565b6000819050919050565b6000610d10610d0b610d0684610ce1565b610ceb565b610ce1565b9050919050565b6000819050919050565b610d2a83610cf5565b610d3e610d3682610d17565b848454610c8f565b825550505050565b600090565b610d53610d46565b610d5e818484610d21565b505050565b5b81811015610d8257610d77600082610d4b565b600181019050610d64565b5050565b601f821115610dc757610d9881610c5d565b610da184610c72565b81016020851015610db0578190505b610dc4610dbc85610c72565b830182610d63565b50505b505050565b600082821c905092915050565b6000610dea60001984600802610dcc565b1980831691505092915050565b6000610e038383610dd9565b9150826002028217905092915050565b610e1c82610a2e565b67ffffffffffffffff811115610e3557610e346107dd565b5b610e3f8254610c2c565b610e4a828285610d86565b600060209050601f831160018114610e7d5760008415610e6b578287015190505b610e758582610df7565b865550610edd565b601f198416610e8b86610c5d565b60005b82811015610eb357848901518255600182019150602085019450602081019050610e8e565b86831015610ed05784890151610ecc601f891682610dd9565b8355505b6001600288020188555050505b505050505050565b7f4974656d206973206e6f74206365727469666965640000000000000000000000600082015250565b6000610f1b601583610a39565b9150610f2682610ee5565b602082019050919050565b60006020820190508181036000830152610f4a81610f0e565b905091905056fea2646970667358221220d263b6d9a5163062e64831ee37e4f8a9a5129a09e03ab458f876222f6c310dbf64736f6c63430008130033",
  "immutableReferences": {},
  "source": "// SPDX-License-Identifier: MIT\r\npragma solidity ^0.8.19;\r\n\r\ncontract MetalCertification {\r\n\r\n    struct Certificate {\r\n        string itemId;\r\n        string certifyingAuthority;\r\n        string certificationDetails;\r\n        bool isCertified;\r\n    }\r\n    \r\n    mapping(string => Certificate) public certifications;\r\n    mapping(string => bool) public certificationExists;\r\n\r\n    // Event for logging certification\r\n    event Certified(string indexed itemId, string certifyingAuthority, string certificationDetails);\r\n\r\n    // Certify an item by storing its details\r\n    function certifyItem(\r\n        string memory _itemId, \r\n        string memory _certifyingAuthority, \r\n        string memory _details\r\n    ) public {\r\n        require(!certificationExists[_itemId], \"Item is already certified\");\r\n        \r\n        certifications[_itemId] = Certificate(_itemId, _certifyingAuthority, _details, true);\r\n        certificationExists[_itemId] = true;\r\n        \r\n        emit Certified(_itemId, _certifyingAuthority, _details);\r\n    }\r\n\r\n    // Get the certification details of an item\r\n    function getCertificationDetails(string memory _itemId) public view returns (string memory, string memory) {\r\n        require(certificationExists[_itemId], \"Item is not certified\");\r\n        \r\n        Certificate memory cert = certifications[_itemId];\r\n        return (cert.certifyingAuthority, cert.certificationDetails);\r\n    }\r\n\r\n    // Verify if an item is certified\r\n    function verifyCertification(string memory _itemId) public view returns (bool) {\r\n        return certificationExists[_itemId];\r\n    }\r\n}\r\n",
  "sourcePath": "D:\\DLOC\\contracts\\MetalCertification.sol",
  "compiler": {
    "name": "solc",
    "version": "0.8.19+commit.7dd6d404.Emscripten.clang"
  },
  "schemaVersion": "3.4.16",
  "updatedAt": "2024-10-07T18:22:24.581Z",
  "devdoc": {
    "kind": "dev",
    "methods": {},
    "version": 1
  },
  "userdoc": {
    "kind": "user",
    "methods": {},
    "version": 1
  }
}